{
  "contractName": "Dex",
  "abi": [
    {
      "inputs": [],
      "stateMutability": "nonpayable",
      "type": "constructor"
    },
    {
      "anonymous": false,
      "inputs": [
        {
          "indexed": false,
          "internalType": "uint256",
          "name": "tradeId",
          "type": "uint256"
        },
        {
          "indexed": false,
          "internalType": "uint256",
          "name": "orderId",
          "type": "uint256"
        },
        {
          "indexed": true,
          "internalType": "bytes32",
          "name": "ticker",
          "type": "bytes32"
        },
        {
          "indexed": true,
          "internalType": "address",
          "name": "trader1",
          "type": "address"
        },
        {
          "indexed": true,
          "internalType": "address",
          "name": "trader2",
          "type": "address"
        },
        {
          "indexed": false,
          "internalType": "uint256",
          "name": "amount",
          "type": "uint256"
        },
        {
          "indexed": false,
          "internalType": "uint256",
          "name": "price",
          "type": "uint256"
        },
        {
          "indexed": false,
          "internalType": "uint256",
          "name": "date",
          "type": "uint256"
        }
      ],
      "name": "NewTrade",
      "type": "event"
    },
    {
      "inputs": [],
      "name": "admin",
      "outputs": [
        {
          "internalType": "address",
          "name": "",
          "type": "address"
        }
      ],
      "stateMutability": "view",
      "type": "function",
      "constant": true
    },
    {
      "inputs": [],
      "name": "nextOrderId",
      "outputs": [
        {
          "internalType": "uint256",
          "name": "",
          "type": "uint256"
        }
      ],
      "stateMutability": "view",
      "type": "function",
      "constant": true
    },
    {
      "inputs": [],
      "name": "nextTradeId",
      "outputs": [
        {
          "internalType": "uint256",
          "name": "",
          "type": "uint256"
        }
      ],
      "stateMutability": "view",
      "type": "function",
      "constant": true
    },
    {
      "inputs": [
        {
          "internalType": "bytes32",
          "name": "",
          "type": "bytes32"
        },
        {
          "internalType": "uint256",
          "name": "",
          "type": "uint256"
        },
        {
          "internalType": "uint256",
          "name": "",
          "type": "uint256"
        }
      ],
      "name": "orderBook",
      "outputs": [
        {
          "internalType": "uint256",
          "name": "id",
          "type": "uint256"
        },
        {
          "internalType": "address",
          "name": "trader",
          "type": "address"
        },
        {
          "internalType": "enum Dex.Side",
          "name": "side",
          "type": "uint8"
        },
        {
          "internalType": "bytes32",
          "name": "ticker",
          "type": "bytes32"
        },
        {
          "internalType": "uint256",
          "name": "amount",
          "type": "uint256"
        },
        {
          "internalType": "uint256",
          "name": "filled",
          "type": "uint256"
        },
        {
          "internalType": "uint256",
          "name": "price",
          "type": "uint256"
        },
        {
          "internalType": "uint256",
          "name": "date",
          "type": "uint256"
        }
      ],
      "stateMutability": "view",
      "type": "function",
      "constant": true
    },
    {
      "inputs": [
        {
          "internalType": "uint256",
          "name": "",
          "type": "uint256"
        }
      ],
      "name": "tokenList",
      "outputs": [
        {
          "internalType": "bytes32",
          "name": "",
          "type": "bytes32"
        }
      ],
      "stateMutability": "view",
      "type": "function",
      "constant": true
    },
    {
      "inputs": [
        {
          "internalType": "bytes32",
          "name": "",
          "type": "bytes32"
        }
      ],
      "name": "tokens",
      "outputs": [
        {
          "internalType": "bytes32",
          "name": "ticker",
          "type": "bytes32"
        },
        {
          "internalType": "address",
          "name": "tokenAddress",
          "type": "address"
        }
      ],
      "stateMutability": "view",
      "type": "function",
      "constant": true
    },
    {
      "inputs": [
        {
          "internalType": "address",
          "name": "",
          "type": "address"
        },
        {
          "internalType": "bytes32",
          "name": "",
          "type": "bytes32"
        }
      ],
      "name": "traderBalances",
      "outputs": [
        {
          "internalType": "uint256",
          "name": "",
          "type": "uint256"
        }
      ],
      "stateMutability": "view",
      "type": "function",
      "constant": true
    },
    {
      "inputs": [
        {
          "internalType": "bytes32",
          "name": "ticker",
          "type": "bytes32"
        },
        {
          "internalType": "address",
          "name": "tokenAddress",
          "type": "address"
        }
      ],
      "name": "addToken",
      "outputs": [],
      "stateMutability": "nonpayable",
      "type": "function"
    },
    {
      "inputs": [
        {
          "internalType": "uint256",
          "name": "amount",
          "type": "uint256"
        },
        {
          "internalType": "bytes32",
          "name": "ticker",
          "type": "bytes32"
        }
      ],
      "name": "deposit",
      "outputs": [],
      "stateMutability": "nonpayable",
      "type": "function"
    },
    {
      "inputs": [
        {
          "internalType": "uint256",
          "name": "amount",
          "type": "uint256"
        },
        {
          "internalType": "bytes32",
          "name": "ticker",
          "type": "bytes32"
        }
      ],
      "name": "withdraw",
      "outputs": [],
      "stateMutability": "nonpayable",
      "type": "function"
    },
    {
      "inputs": [
        {
          "internalType": "bytes32",
          "name": "ticker",
          "type": "bytes32"
        },
        {
          "internalType": "uint256",
          "name": "amount",
          "type": "uint256"
        },
        {
          "internalType": "uint256",
          "name": "price",
          "type": "uint256"
        },
        {
          "internalType": "enum Dex.Side",
          "name": "side",
          "type": "uint8"
        }
      ],
      "name": "createLimitOrder",
      "outputs": [],
      "stateMutability": "nonpayable",
      "type": "function"
    },
    {
      "inputs": [
        {
          "internalType": "bytes32",
          "name": "ticker",
          "type": "bytes32"
        },
        {
          "internalType": "uint256",
          "name": "amount",
          "type": "uint256"
        },
        {
          "internalType": "enum Dex.Side",
          "name": "side",
          "type": "uint8"
        }
      ],
      "name": "createMarketOrder",
      "outputs": [],
      "stateMutability": "nonpayable",
      "type": "function"
    },
    {
      "inputs": [
        {
          "internalType": "bytes32",
          "name": "ticker",
          "type": "bytes32"
        },
        {
          "internalType": "enum Dex.Side",
          "name": "side",
          "type": "uint8"
        }
      ],
      "name": "getOrders",
      "outputs": [
        {
          "components": [
            {
              "internalType": "uint256",
              "name": "id",
              "type": "uint256"
            },
            {
              "internalType": "address",
              "name": "trader",
              "type": "address"
            },
            {
              "internalType": "enum Dex.Side",
              "name": "side",
              "type": "uint8"
            },
            {
              "internalType": "bytes32",
              "name": "ticker",
              "type": "bytes32"
            },
            {
              "internalType": "uint256",
              "name": "amount",
              "type": "uint256"
            },
            {
              "internalType": "uint256",
              "name": "filled",
              "type": "uint256"
            },
            {
              "internalType": "uint256",
              "name": "price",
              "type": "uint256"
            },
            {
              "internalType": "uint256",
              "name": "date",
              "type": "uint256"
            }
          ],
          "internalType": "struct Dex.Order[]",
          "name": "",
          "type": "tuple[]"
        }
      ],
      "stateMutability": "view",
      "type": "function",
      "constant": true
    },
    {
      "inputs": [],
      "name": "getTokens",
      "outputs": [
        {
          "components": [
            {
              "internalType": "bytes32",
              "name": "ticker",
              "type": "bytes32"
            },
            {
              "internalType": "address",
              "name": "tokenAddress",
              "type": "address"
            }
          ],
          "internalType": "struct Dex.Token[]",
          "name": "",
          "type": "tuple[]"
        }
      ],
      "stateMutability": "view",
      "type": "function",
      "constant": true
    }
  ],
  "bytecode": "0x608060405234801561001057600080fd5b5033600460006101000a81548173ffffffffffffffffffffffffffffffffffffffff021916908373ffffffffffffffffffffffffffffffffffffffff160217905550613e4c806100616000396000f3fe608060405234801561001057600080fd5b50600436106100ea5760003560e01c80639776aacf1161008c578063aa6ca80811610066578063aa6ca80814610277578063c9630cb014610295578063d9c0c950146102b1578063f851a440146102cd576100ea565b80639776aacf1461020f5780639ead72221461022b578063a8d2021a1461025b576100ea565b806372ce957e116100c857806372ce957e146101745780637f2c6246146101a4578063813ad083146101c0578063904194a3146101de576100ea565b80630bb431b6146100ef5780632a58b3301461012657806346e9658b14610144575b600080fd5b6101096004803603810190610104919061334d565b6102eb565b60405161011d98979695949392919061394a565b60405180910390f35b61012e61038a565b60405161013b919061392f565b60405180910390f35b61015e600480360381019061015991906132c2565b610390565b60405161016b91906137e7565b60405180910390f35b61018e600480360381019061018991906131f8565b610566565b60405161019b919061392f565b60405180910390f35b6101be60048036038101906101b991906132fe565b61058b565b005b6101c8611c90565b6040516101d5919061392f565b60405180910390f35b6101f860048036038101906101f3919061325d565b611c96565b604051610206929190613846565b60405180910390f35b61022960048036038101906102249190613286565b611cda565b005b610245600480360381019061024091906133ff565b611e28565b604051610252919061382b565b60405180910390f35b61027560048036038101906102709190613428565b611e4c565b005b61027f612104565b60405161028c9190613809565b60405180910390f35b6102af60048036038101906102aa9190613428565b6122f5565b005b6102cb60048036038101906102c6919061339c565b61251c565b005b6102d56130f4565b6040516102e2919061376c565b60405180910390f35b6003602052826000526040600020602052816000526040600020818154811061031357600080fd5b906000526020600020906007020160009250925050508060000154908060010160009054906101000a900473ffffffffffffffffffffffffffffffffffffffff16908060010160149054906101000a900460ff16908060020154908060030154908060040154908060050154908060060154905088565b60055481565b60606003600084815260200190815260200160002060008360018111156103e0577f4e487b7100000000000000000000000000000000000000000000000000000000600052602160045260246000fd5b8152602001908152602001600020805480602002602001604051908101604052809291908181526020016000905b8282101561055a578382906000526020600020906007020160405180610100016040529081600082015481526020016001820160009054906101000a900473ffffffffffffffffffffffffffffffffffffffff1673ffffffffffffffffffffffffffffffffffffffff1673ffffffffffffffffffffffffffffffffffffffff1681526020016001820160149054906101000a900460ff1660018111156104dd577f4e487b7100000000000000000000000000000000000000000000000000000000600052602160045260246000fd5b6001811115610515577f4e487b7100000000000000000000000000000000000000000000000000000000600052602160045260246000fd5b8152602001600282015481526020016003820154815260200160048201548152602001600582015481526020016006820154815250508152602001906001019061040e565b50505050905092915050565b6002602052816000526040600020602052806000526040600020600091509150505481565b82600073ffffffffffffffffffffffffffffffffffffffff1660008083815260200190815260200160002060010160009054906101000a900473ffffffffffffffffffffffffffffffffffffffff1673ffffffffffffffffffffffffffffffffffffffff161415610631576040517f08c379a00000000000000000000000000000000000000000000000000000000081526004016106289061390f565b60405180910390fd5b837f4441490000000000000000000000000000000000000000000000000000000000811415610695576040517f08c379a000000000000000000000000000000000000000000000000000000000815260040161068c906138cf565b60405180910390fd5b6001808111156106ce577f4e487b7100000000000000000000000000000000000000000000000000000000600052602160045260246000fd5b836001811115610707577f4e487b7100000000000000000000000000000000000000000000000000000000600052602160045260246000fd5b14156107a15783600260003373ffffffffffffffffffffffffffffffffffffffff1673ffffffffffffffffffffffffffffffffffffffff16815260200190815260200160002060008781526020019081526020016000205410156107a0576040517f08c379a0000000000000000000000000000000000000000000000000000000008152600401610797906138ef565b60405180910390fd5b5b60006003600087815260200190815260200160002060008060018111156107f1577f4e487b7100000000000000000000000000000000000000000000000000000000600052602160045260246000fd5b86600181111561082a577f4e487b7100000000000000000000000000000000000000000000000000000000600052602160045260246000fd5b14610836576000610839565b60015b6001811115610871577f4e487b7100000000000000000000000000000000000000000000000000000000600052602160045260246000fd5b815260200190815260200160002090506000808690505b82805490508210801561089b5750600081115b156119335760006109498484815481106108de577f4e487b7100000000000000000000000000000000000000000000000000000000600052603260045260246000fd5b906000526020600020906007020160040154858581548110610929577f4e487b7100000000000000000000000000000000000000000000000000000000600052603260045260246000fd5b90600052602060002090600702016003015461311a90919063ffffffff16565b9050600081831161095a578261095c565b815b9050610971818461311a90919063ffffffff16565b92506109d0818686815481106109b0577f4e487b7100000000000000000000000000000000000000000000000000000000600052603260045260246000fd5b90600052602060002090600702016004015461313090919063ffffffff16565b858581548110610a09577f4e487b7100000000000000000000000000000000000000000000000000000000600052603260045260246000fd5b9060005260206000209060070201600401819055503373ffffffffffffffffffffffffffffffffffffffff16858581548110610a6e577f4e487b7100000000000000000000000000000000000000000000000000000000600052603260045260246000fd5b906000526020600020906007020160010160009054906101000a900473ffffffffffffffffffffffffffffffffffffffff1673ffffffffffffffffffffffffffffffffffffffff168b7fdb0c486e680ba8026643e6a85f8d157b5e7bcd4b32b54d564542570a9eb20416600654898981548110610b14577f4e487b7100000000000000000000000000000000000000000000000000000000600052603260045260246000fd5b906000526020600020906007020160000154868b8b81548110610b60577f4e487b7100000000000000000000000000000000000000000000000000000000600052603260045260246000fd5b90600052602060002090600702016005015442604051610b849594939291906139c8565b60405180910390a4600180811115610bc5577f4e487b7100000000000000000000000000000000000000000000000000000000600052602160045260246000fd5b886001811115610bfe577f4e487b7100000000000000000000000000000000000000000000000000000000600052602160045260246000fd5b14156111c157610c6781600260003373ffffffffffffffffffffffffffffffffffffffff1673ffffffffffffffffffffffffffffffffffffffff16815260200190815260200160002060008d81526020019081526020016000205461311a90919063ffffffff16565b600260003373ffffffffffffffffffffffffffffffffffffffff1673ffffffffffffffffffffffffffffffffffffffff16815260200190815260200160002060008c815260200190815260200160002081905550610d9a610d1b868681548110610cfa577f4e487b7100000000000000000000000000000000000000000000000000000000600052603260045260246000fd5b9060005260206000209060070201600501548361314690919063ffffffff16565b600260003373ffffffffffffffffffffffffffffffffffffffff1673ffffffffffffffffffffffffffffffffffffffff16815260200190815260200160002060007f444149000000000000000000000000000000000000000000000000000000000081526020019081526020016000205461313090919063ffffffff16565b600260003373ffffffffffffffffffffffffffffffffffffffff1673ffffffffffffffffffffffffffffffffffffffff16815260200190815260200160002060007f4441490000000000000000000000000000000000000000000000000000000000815260200190815260200160002081905550610edb8160026000888881548110610e4f577f4e487b7100000000000000000000000000000000000000000000000000000000600052603260045260246000fd5b906000526020600020906007020160010160009054906101000a900473ffffffffffffffffffffffffffffffffffffffff1673ffffffffffffffffffffffffffffffffffffffff1673ffffffffffffffffffffffffffffffffffffffff16815260200190815260200160002060008d81526020019081526020016000205461313090919063ffffffff16565b60026000878781548110610f18577f4e487b7100000000000000000000000000000000000000000000000000000000600052603260045260246000fd5b906000526020600020906007020160010160009054906101000a900473ffffffffffffffffffffffffffffffffffffffff1673ffffffffffffffffffffffffffffffffffffffff1673ffffffffffffffffffffffffffffffffffffffff16815260200190815260200160002060008c8152602001908152602001600020819055506110e2610ff9868681548110610fd8577f4e487b7100000000000000000000000000000000000000000000000000000000600052603260045260246000fd5b9060005260206000209060070201600501548361314690919063ffffffff16565b60026000888881548110611036577f4e487b7100000000000000000000000000000000000000000000000000000000600052603260045260246000fd5b906000526020600020906007020160010160009054906101000a900473ffffffffffffffffffffffffffffffffffffffff1673ffffffffffffffffffffffffffffffffffffffff1673ffffffffffffffffffffffffffffffffffffffff16815260200190815260200160002060007f444149000000000000000000000000000000000000000000000000000000000081526020019081526020016000205461311a90919063ffffffff16565b6002600087878154811061111f577f4e487b7100000000000000000000000000000000000000000000000000000000600052603260045260246000fd5b906000526020600020906007020160010160009054906101000a900473ffffffffffffffffffffffffffffffffffffffff1673ffffffffffffffffffffffffffffffffffffffff1673ffffffffffffffffffffffffffffffffffffffff16815260200190815260200160002060007f44414900000000000000000000000000000000000000000000000000000000008152602001908152602001600020819055505b600060018111156111fb577f4e487b7100000000000000000000000000000000000000000000000000000000600052602160045260246000fd5b886001811115611234577f4e487b7100000000000000000000000000000000000000000000000000000000600052602160045260246000fd5b141561190657611297858581548110611276577f4e487b7100000000000000000000000000000000000000000000000000000000600052603260045260246000fd5b9060005260206000209060070201600501548261314690919063ffffffff16565b600260003373ffffffffffffffffffffffffffffffffffffffff1673ffffffffffffffffffffffffffffffffffffffff16815260200190815260200160002060007f44414900000000000000000000000000000000000000000000000000000000008152602001908152602001600020541015611349576040517f08c379a0000000000000000000000000000000000000000000000000000000008152600401611340906138af565b60405180910390fd5b6113ac81600260003373ffffffffffffffffffffffffffffffffffffffff1673ffffffffffffffffffffffffffffffffffffffff16815260200190815260200160002060008d81526020019081526020016000205461313090919063ffffffff16565b600260003373ffffffffffffffffffffffffffffffffffffffff1673ffffffffffffffffffffffffffffffffffffffff16815260200190815260200160002060008c8152602001908152602001600020819055506114df61146086868154811061143f577f4e487b7100000000000000000000000000000000000000000000000000000000600052603260045260246000fd5b9060005260206000209060070201600501548361314690919063ffffffff16565b600260003373ffffffffffffffffffffffffffffffffffffffff1673ffffffffffffffffffffffffffffffffffffffff16815260200190815260200160002060007f444149000000000000000000000000000000000000000000000000000000000081526020019081526020016000205461311a90919063ffffffff16565b600260003373ffffffffffffffffffffffffffffffffffffffff1673ffffffffffffffffffffffffffffffffffffffff16815260200190815260200160002060007f44414900000000000000000000000000000000000000000000000000000000008152602001908152602001600020819055506116208160026000888881548110611594577f4e487b7100000000000000000000000000000000000000000000000000000000600052603260045260246000fd5b906000526020600020906007020160010160009054906101000a900473ffffffffffffffffffffffffffffffffffffffff1673ffffffffffffffffffffffffffffffffffffffff1673ffffffffffffffffffffffffffffffffffffffff16815260200190815260200160002060008d81526020019081526020016000205461311a90919063ffffffff16565b6002600087878154811061165d577f4e487b7100000000000000000000000000000000000000000000000000000000600052603260045260246000fd5b906000526020600020906007020160010160009054906101000a900473ffffffffffffffffffffffffffffffffffffffff1673ffffffffffffffffffffffffffffffffffffffff1673ffffffffffffffffffffffffffffffffffffffff16815260200190815260200160002060008c81526020019081526020016000208190555061182761173e86868154811061171d577f4e487b7100000000000000000000000000000000000000000000000000000000600052603260045260246000fd5b9060005260206000209060070201600501548361314690919063ffffffff16565b6002600088888154811061177b577f4e487b7100000000000000000000000000000000000000000000000000000000600052603260045260246000fd5b906000526020600020906007020160010160009054906101000a900473ffffffffffffffffffffffffffffffffffffffff1673ffffffffffffffffffffffffffffffffffffffff1673ffffffffffffffffffffffffffffffffffffffff16815260200190815260200160002060007f444149000000000000000000000000000000000000000000000000000000000081526020019081526020016000205461313090919063ffffffff16565b60026000878781548110611864577f4e487b7100000000000000000000000000000000000000000000000000000000600052603260045260246000fd5b906000526020600020906007020160010160009054906101000a900473ffffffffffffffffffffffffffffffffffffffff1673ffffffffffffffffffffffffffffffffffffffff1673ffffffffffffffffffffffffffffffffffffffff16815260200190815260200160002060007f44414900000000000000000000000000000000000000000000000000000000008152602001908152602001600020819055505b6006600081548092919061191990613bf9565b9190505550838061192990613bf9565b9450505050610888565b600091505b8280549050821080156119de575082828154811061197f577f4e487b7100000000000000000000000000000000000000000000000000000000600052603260045260246000fd5b9060005260206000209060070201600301548383815481106119ca577f4e487b7100000000000000000000000000000000000000000000000000000000600052603260045260246000fd5b906000526020600020906007020160040154145b15611c865760008290505b600184805490506119fa9190613b4e565b811015611bb75783600182611a0f9190613a9e565b81548110611a46577f4e487b7100000000000000000000000000000000000000000000000000000000600052603260045260246000fd5b9060005260206000209060070201848281548110611a8d577f4e487b7100000000000000000000000000000000000000000000000000000000600052603260045260246000fd5b9060005260206000209060070201600082015481600001556001820160009054906101000a900473ffffffffffffffffffffffffffffffffffffffff168160010160006101000a81548173ffffffffffffffffffffffffffffffffffffffff021916908373ffffffffffffffffffffffffffffffffffffffff1602179055506001820160149054906101000a900460ff168160010160146101000a81548160ff02191690836001811115611b6a577f4e487b7100000000000000000000000000000000000000000000000000000000600052602160045260246000fd5b021790555060028201548160020155600382015481600301556004820154816004015560058201548160050155600682015481600601559050508080611baf90613bf9565b9150506119e9565b5082805480611bef577f4e487b7100000000000000000000000000000000000000000000000000000000600052603160045260246000fd5b60019003818190600052602060002090600702016000808201600090556001820160006101000a81549073ffffffffffffffffffffffffffffffffffffffff02191690556001820160146101000a81549060ff021916905560028201600090556003820160009055600482016000905560058201600090556006820160009055505090558180611c7e90613bf9565b925050611938565b5050505050505050565b60065481565b60006020528060005260406000206000915090508060000154908060010160009054906101000a900473ffffffffffffffffffffffffffffffffffffffff16905082565b600460009054906101000a900473ffffffffffffffffffffffffffffffffffffffff1673ffffffffffffffffffffffffffffffffffffffff163373ffffffffffffffffffffffffffffffffffffffff1614611d6a576040517f08c379a0000000000000000000000000000000000000000000000000000000008152600401611d619061388f565b60405180910390fd5b60405180604001604052808381526020018273ffffffffffffffffffffffffffffffffffffffff168152506000808481526020019081526020016000206000820151816000015560208201518160010160006101000a81548173ffffffffffffffffffffffffffffffffffffffff021916908373ffffffffffffffffffffffffffffffffffffffff16021790555090505060018290806001815401808255809150506001900390600052602060002001600090919091909150555050565b60018181548110611e3857600080fd5b906000526020600020016000915090505481565b80600073ffffffffffffffffffffffffffffffffffffffff1660008083815260200190815260200160002060010160009054906101000a900473ffffffffffffffffffffffffffffffffffffffff1673ffffffffffffffffffffffffffffffffffffffff161415611ef2576040517f08c379a0000000000000000000000000000000000000000000000000000000008152600401611ee99061390f565b60405180910390fd5b82600260003373ffffffffffffffffffffffffffffffffffffffff1673ffffffffffffffffffffffffffffffffffffffff1681526020019081526020016000206000848152602001908152602001600020541015611f85576040517f08c379a0000000000000000000000000000000000000000000000000000000008152600401611f7c9061386f565b60405180910390fd5b611fe883600260003373ffffffffffffffffffffffffffffffffffffffff1673ffffffffffffffffffffffffffffffffffffffff16815260200190815260200160002060008581526020019081526020016000205461311a90919063ffffffff16565b600260003373ffffffffffffffffffffffffffffffffffffffff1673ffffffffffffffffffffffffffffffffffffffff16815260200190815260200160002060008481526020019081526020016000208190555060008083815260200190815260200160002060010160009054906101000a900473ffffffffffffffffffffffffffffffffffffffff1673ffffffffffffffffffffffffffffffffffffffff1663a9059cbb33856040518363ffffffff1660e01b81526004016120ac9291906137be565b602060405180830381600087803b1580156120c657600080fd5b505af11580156120da573d6000803e3d6000fd5b505050506040513d601f19601f820116820180604052508101906120fe9190613234565b50505050565b6060600060018054905067ffffffffffffffff81111561214d577f4e487b7100000000000000000000000000000000000000000000000000000000600052604160045260246000fd5b60405190808252806020026020018201604052801561218657816020015b61217361315c565b81526020019060019003908161216b5790505b50905060005b6001805490508110156122ed576040518060400160405280600080600185815481106121e1577f4e487b7100000000000000000000000000000000000000000000000000000000600052603260045260246000fd5b9060005260206000200154815260200190815260200160002060000154815260200160008060018581548110612240577f4e487b7100000000000000000000000000000000000000000000000000000000600052603260045260246000fd5b9060005260206000200154815260200190815260200160002060010160009054906101000a900473ffffffffffffffffffffffffffffffffffffffff1673ffffffffffffffffffffffffffffffffffffffff168152508282815181106122cf577f4e487b7100000000000000000000000000000000000000000000000000000000600052603260045260246000fd5b602002602001018190525080806122e590613bf9565b91505061218c565b508091505090565b80600073ffffffffffffffffffffffffffffffffffffffff1660008083815260200190815260200160002060010160009054906101000a900473ffffffffffffffffffffffffffffffffffffffff1673ffffffffffffffffffffffffffffffffffffffff16141561239b576040517f08c379a00000000000000000000000000000000000000000000000000000000081526004016123929061390f565b60405180910390fd5b60008083815260200190815260200160002060010160009054906101000a900473ffffffffffffffffffffffffffffffffffffffff1673ffffffffffffffffffffffffffffffffffffffff166323b872dd3330866040518463ffffffff1660e01b815260040161240d93929190613787565b602060405180830381600087803b15801561242757600080fd5b505af115801561243b573d6000803e3d6000fd5b505050506040513d601f19601f8201168201806040525081019061245f9190613234565b506124c383600260003373ffffffffffffffffffffffffffffffffffffffff1673ffffffffffffffffffffffffffffffffffffffff16815260200190815260200160002060008581526020019081526020016000205461313090919063ffffffff16565b600260003373ffffffffffffffffffffffffffffffffffffffff1673ffffffffffffffffffffffffffffffffffffffff168152602001908152602001600020600084815260200190815260200160002081905550505050565b83600073ffffffffffffffffffffffffffffffffffffffff1660008083815260200190815260200160002060010160009054906101000a900473ffffffffffffffffffffffffffffffffffffffff1673ffffffffffffffffffffffffffffffffffffffff1614156125c2576040517f08c379a00000000000000000000000000000000000000000000000000000000081526004016125b99061390f565b60405180910390fd5b847f4441490000000000000000000000000000000000000000000000000000000000811415612626576040517f08c379a000000000000000000000000000000000000000000000000000000000815260040161261d906138cf565b60405180910390fd5b60018081111561265f577f4e487b7100000000000000000000000000000000000000000000000000000000600052602160045260246000fd5b836001811115612698577f4e487b7100000000000000000000000000000000000000000000000000000000600052602160045260246000fd5b14156127365784600260003373ffffffffffffffffffffffffffffffffffffffff1673ffffffffffffffffffffffffffffffffffffffff1681526020019081526020016000206000888152602001908152602001600020541015612731576040517f08c379a0000000000000000000000000000000000000000000000000000000008152600401612728906138ef565b60405180910390fd5b6127fc565b612749848661314690919063ffffffff16565b600260003373ffffffffffffffffffffffffffffffffffffffff1673ffffffffffffffffffffffffffffffffffffffff16815260200190815260200160002060007f444149000000000000000000000000000000000000000000000000000000000081526020019081526020016000205410156127fb576040517f08c379a00000000000000000000000000000000000000000000000000000000081526004016127f2906138af565b60405180910390fd5b5b600060036000888152602001908152602001600020600085600181111561284c577f4e487b7100000000000000000000000000000000000000000000000000000000600052602160045260246000fd5b815260200190815260200160002090508060405180610100016040528060055481526020013373ffffffffffffffffffffffffffffffffffffffff1681526020018660018111156128c6577f4e487b7100000000000000000000000000000000000000000000000000000000600052602160045260246000fd5b8152602001898152602001888152602001600081526020018781526020014281525090806001815401808255809150506001900390600052602060002090600702016000909190919091506000820151816000015560208201518160010160006101000a81548173ffffffffffffffffffffffffffffffffffffffff021916908373ffffffffffffffffffffffffffffffffffffffff16021790555060408201518160010160146101000a81548160ff021916908360018111156129b3577f4e487b7100000000000000000000000000000000000000000000000000000000600052602160045260246000fd5b0217905550606082015181600201556080820151816003015560a0820151816004015560c0820151816005015560e082015181600601555050600080828054905011612a00576000612a12565b60018280549050612a119190613b4e565b5b90505b60008111156130ce5760006001811115612a58577f4e487b7100000000000000000000000000000000000000000000000000000000600052602160045260246000fd5b856001811115612a91577f4e487b7100000000000000000000000000000000000000000000000000000000600052602160045260246000fd5b148015612b3d5750818181548110612ad2577f4e487b7100000000000000000000000000000000000000000000000000000000600052603260045260246000fd5b90600052602060002090600702016005015482600183612af29190613b4e565b81548110612b29577f4e487b7100000000000000000000000000000000000000000000000000000000600052603260045260246000fd5b906000526020600020906007020160050154115b15612b47576130ce565b600180811115612b80577f4e487b7100000000000000000000000000000000000000000000000000000000600052602160045260246000fd5b856001811115612bb9577f4e487b7100000000000000000000000000000000000000000000000000000000600052602160045260246000fd5b148015612c655750818181548110612bfa577f4e487b7100000000000000000000000000000000000000000000000000000000600052603260045260246000fd5b90600052602060002090600702016005015482600183612c1a9190613b4e565b81548110612c51577f4e487b7100000000000000000000000000000000000000000000000000000000600052603260045260246000fd5b906000526020600020906007020160050154105b15612c6f576130ce565b600082600183612c7f9190613b4e565b81548110612cb6577f4e487b7100000000000000000000000000000000000000000000000000000000600052603260045260246000fd5b906000526020600020906007020160405180610100016040529081600082015481526020016001820160009054906101000a900473ffffffffffffffffffffffffffffffffffffffff1673ffffffffffffffffffffffffffffffffffffffff1673ffffffffffffffffffffffffffffffffffffffff1681526020016001820160149054906101000a900460ff166001811115612d7b577f4e487b7100000000000000000000000000000000000000000000000000000000600052602160045260246000fd5b6001811115612db3577f4e487b7100000000000000000000000000000000000000000000000000000000600052602160045260246000fd5b8152602001600282015481526020016003820154815260200160048201548152602001600582015481526020016006820154815250509050828281548110612e24577f4e487b7100000000000000000000000000000000000000000000000000000000600052603260045260246000fd5b906000526020600020906007020183600184612e409190613b4e565b81548110612e77577f4e487b7100000000000000000000000000000000000000000000000000000000600052603260045260246000fd5b9060005260206000209060070201600082015481600001556001820160009054906101000a900473ffffffffffffffffffffffffffffffffffffffff168160010160006101000a81548173ffffffffffffffffffffffffffffffffffffffff021916908373ffffffffffffffffffffffffffffffffffffffff1602179055506001820160149054906101000a900460ff168160010160146101000a81548160ff02191690836001811115612f54577f4e487b7100000000000000000000000000000000000000000000000000000000600052602160045260246000fd5b0217905550600282015481600201556003820154816003015560048201548160040155600582015481600501556006820154816006015590505080838381548110612fc8577f4e487b7100000000000000000000000000000000000000000000000000000000600052603260045260246000fd5b90600052602060002090600702016000820151816000015560208201518160010160006101000a81548173ffffffffffffffffffffffffffffffffffffffff021916908373ffffffffffffffffffffffffffffffffffffffff16021790555060408201518160010160146101000a81548160ff02191690836001811115613078577f4e487b7100000000000000000000000000000000000000000000000000000000600052602160045260246000fd5b0217905550606082015181600201556080820151816003015560a0820151816004015560c0820151816005015560e082015181600601559050506130c660018361311a90919063ffffffff16565b915050612a15565b6130e4600160055461313090919063ffffffff16565b6005819055505050505050505050565b600460009054906101000a900473ffffffffffffffffffffffffffffffffffffffff1681565b600081836131289190613b4e565b905092915050565b6000818361313e9190613a9e565b905092915050565b600081836131549190613af4565b905092915050565b604051806040016040528060008019168152602001600073ffffffffffffffffffffffffffffffffffffffff1681525090565b60008135905061319e81613daa565b92915050565b6000815190506131b381613dc1565b92915050565b6000813590506131c881613dd8565b92915050565b6000813590506131dd81613def565b92915050565b6000813590506131f281613dff565b92915050565b6000806040838503121561320b57600080fd5b60006132198582860161318f565b925050602061322a858286016131b9565b9150509250929050565b60006020828403121561324657600080fd5b6000613254848285016131a4565b91505092915050565b60006020828403121561326f57600080fd5b600061327d848285016131b9565b91505092915050565b6000806040838503121561329957600080fd5b60006132a7858286016131b9565b92505060206132b88582860161318f565b9150509250929050565b600080604083850312156132d557600080fd5b60006132e3858286016131b9565b92505060206132f4858286016131ce565b9150509250929050565b60008060006060848603121561331357600080fd5b6000613321868287016131b9565b9350506020613332868287016131e3565b9250506040613343868287016131ce565b9150509250925092565b60008060006060848603121561336257600080fd5b6000613370868287016131b9565b9350506020613381868287016131e3565b9250506040613392868287016131e3565b9150509250925092565b600080600080608085870312156133b257600080fd5b60006133c0878288016131b9565b94505060206133d1878288016131e3565b93505060406133e2878288016131e3565b92505060606133f3878288016131ce565b91505092959194509250565b60006020828403121561341157600080fd5b600061341f848285016131e3565b91505092915050565b6000806040838503121561343b57600080fd5b6000613449858286016131e3565b925050602061345a858286016131b9565b9150509250929050565b6000613470838361367d565b6101008301905092915050565b6000613489838361371f565b60408301905092915050565b61349e81613b82565b82525050565b6134ad81613b82565b82525050565b60006134be82613a3b565b6134c88185613a6b565b93506134d383613a1b565b8060005b838110156135045781516134eb8882613464565b97506134f683613a51565b9250506001810190506134d7565b5085935050505092915050565b600061351c82613a46565b6135268185613a7c565b935061353183613a2b565b8060005b83811015613562578151613549888261347d565b975061355483613a5e565b925050600181019050613535565b5085935050505092915050565b61357881613ba0565b82525050565b61358781613ba0565b82525050565b61359681613be7565b82525050565b6135a581613be7565b82525050565b60006135b8600f83613a8d565b91506135c382613ca0565b602082019050919050565b60006135db600a83613a8d565b91506135e682613cc9565b602082019050919050565b60006135fe601383613a8d565b915061360982613cf2565b602082019050919050565b6000613621601083613a8d565b915061362c82613d1b565b602082019050919050565b6000613644601583613a8d565b915061364f82613d44565b602082019050919050565b6000613667601983613a8d565b915061367282613d6d565b602082019050919050565b61010082016000820151613694600085018261374e565b5060208201516136a76020850182613495565b5060408201516136ba604085018261358d565b5060608201516136cd606085018261356f565b5060808201516136e0608085018261374e565b5060a08201516136f360a085018261374e565b5060c082015161370660c085018261374e565b5060e082015161371960e085018261374e565b50505050565b604082016000820151613735600085018261356f565b5060208201516137486020850182613495565b50505050565b61375781613bdd565b82525050565b61376681613bdd565b82525050565b600060208201905061378160008301846134a4565b92915050565b600060608201905061379c60008301866134a4565b6137a960208301856134a4565b6137b6604083018461375d565b949350505050565b60006040820190506137d360008301856134a4565b6137e0602083018461375d565b9392505050565b6000602082019050818103600083015261380181846134b3565b905092915050565b600060208201905081810360008301526138238184613511565b905092915050565b6000602082019050613840600083018461357e565b92915050565b600060408201905061385b600083018561357e565b61386860208301846134a4565b9392505050565b60006020820190508181036000830152613888816135ab565b9050919050565b600060208201905081810360008301526138a8816135ce565b9050919050565b600060208201905081810360008301526138c8816135f1565b9050919050565b600060208201905081810360008301526138e881613614565b9050919050565b6000602082019050818103600083015261390881613637565b9050919050565b600060208201905081810360008301526139288161365a565b9050919050565b6000602082019050613944600083018461375d565b92915050565b600061010082019050613960600083018b61375d565b61396d602083018a6134a4565b61397a604083018961359c565b613987606083018861357e565b613994608083018761375d565b6139a160a083018661375d565b6139ae60c083018561375d565b6139bb60e083018461375d565b9998505050505050505050565b600060a0820190506139dd600083018861375d565b6139ea602083018761375d565b6139f7604083018661375d565b613a04606083018561375d565b613a11608083018461375d565b9695505050505050565b6000819050602082019050919050565b6000819050602082019050919050565b600081519050919050565b600081519050919050565b6000602082019050919050565b6000602082019050919050565b600082825260208201905092915050565b600082825260208201905092915050565b600082825260208201905092915050565b6000613aa982613bdd565b9150613ab483613bdd565b9250827fffffffffffffffffffffffffffffffffffffffffffffffffffffffffffffffff03821115613ae957613ae8613c42565b5b828201905092915050565b6000613aff82613bdd565b9150613b0a83613bdd565b9250817fffffffffffffffffffffffffffffffffffffffffffffffffffffffffffffffff0483118215151615613b4357613b42613c42565b5b828202905092915050565b6000613b5982613bdd565b9150613b6483613bdd565b925082821015613b7757613b76613c42565b5b828203905092915050565b6000613b8d82613bbd565b9050919050565b60008115159050919050565b6000819050919050565b6000819050613bb882613d96565b919050565b600073ffffffffffffffffffffffffffffffffffffffff82169050919050565b6000819050919050565b6000613bf282613baa565b9050919050565b6000613c0482613bdd565b91507fffffffffffffffffffffffffffffffffffffffffffffffffffffffffffffffff821415613c3757613c36613c42565b5b600182019050919050565b7f4e487b7100000000000000000000000000000000000000000000000000000000600052601160045260246000fd5b7f4e487b7100000000000000000000000000000000000000000000000000000000600052602160045260246000fd5b7f62616c616e636520746f6f206c6f770000000000000000000000000000000000600082015250565b7f6f6e6c792061646d696e00000000000000000000000000000000000000000000600082015250565b7f4441492062616c616e636520746f6f206c6f7700000000000000000000000000600082015250565b7f63616e6e6f742074726164652044414900000000000000000000000000000000600082015250565b7f746f6b656e2062616c616e636520746f6f206c6f770000000000000000000000600082015250565b7f7468697320746f6b656e20646f6573206e6f7420657869737400000000000000600082015250565b60028110613da757613da6613c71565b5b50565b613db381613b82565b8114613dbe57600080fd5b50565b613dca81613b94565b8114613dd557600080fd5b50565b613de181613ba0565b8114613dec57600080fd5b50565b60028110613dfc57600080fd5b50565b613e0881613bdd565b8114613e1357600080fd5b5056fea26469706673582212209467af33f7c6c05d953b603510eb894c45a6df82b712e92faff424d0d115ac7b64736f6c63430008040033",
  "immutableReferences": {},
  "source": "// SPDX-License-Identifier: UNLICENSED\npragma solidity 0.8.4;\npragma experimental ABIEncoderV2;\n\nimport \"@openzeppelin/contracts/token/ERC20/IERC20.sol\";\nimport \"@openzeppelin/contracts/utils/math/SafeMath.sol\";\n\ncontract Dex {\n\n  using SafeMath for uint;\n\n  enum Side {\n    BUY,\n    SELL\n  }\n\n  struct Token {\n    bytes32 ticker;\n    address tokenAddress;\n  }\n\n  struct Order {\n    uint id;\n    address trader;\n    Side side;\n    bytes32 ticker;\n    uint amount;\n    uint filled;\n    uint price;\n    uint date;\n  }\n\n  mapping(bytes32 => Token) public tokens;\n  bytes32[] public tokenList;\n  mapping(address => mapping(bytes32 => uint)) public traderBalances;\n  mapping(bytes32 => mapping(uint => Order[])) public orderBook;\n  address public admin;\n  uint public nextOrderId;\n  uint public nextTradeId;\n  bytes32 constant DAI = bytes32('DAI');\n\n  event NewTrade(\n    uint tradeId,\n    uint orderId,\n    bytes32 indexed ticker,\n    address indexed trader1,\n    address indexed trader2,\n    uint amount,\n    uint price,\n    uint date\n  );\n\n  constructor() {\n    admin = msg.sender;\n  }\n\n  function addToken(bytes32 ticker, address tokenAddress) onlyAdmin() external {\n    tokens[ticker] = Token(ticker, tokenAddress);\n    tokenList.push(ticker);\n  }\n\n  function deposit(uint amount, bytes32 ticker) tokenExist(ticker) external {\n    IERC20(tokens[ticker].tokenAddress).transferFrom(msg.sender, address(this), amount);\n    traderBalances[msg.sender][ticker] = traderBalances[msg.sender][ticker].add(amount);\n  }\n\n  function withdraw(uint amount, bytes32 ticker) tokenExist(ticker) external {\n    require(traderBalances[msg.sender][ticker] >= amount, 'balance too low');\n    traderBalances[msg.sender][ticker] = traderBalances[msg.sender][ticker].sub(amount);\n    IERC20(tokens[ticker].tokenAddress).transfer(msg.sender, amount);\n  }\n\n  function createLimitOrder(\n    bytes32 ticker,\n    uint amount,\n    uint price,\n    Side side\n  ) tokenExist(ticker) tokenIsNotDai(ticker) external {\n    if (side == Side.SELL) {\n      require(traderBalances[msg.sender][ticker] >= amount, 'token balance too low');\n    } else {\n      require(traderBalances[msg.sender][DAI] >= amount.mul(price), 'DAI balance too low');\n    }\n\n    Order[] storage orders = orderBook[ticker][uint(side)];\n    orders.push(Order(\n      nextOrderId,\n      msg.sender,\n      side,\n      ticker,\n      amount,\n      0,\n      price,\n      block.timestamp\n    ));\n\n    uint i = orders.length > 0 ? orders.length - 1 : 0;\n    while (i > 0) {\n      if (side == Side.BUY && orders[i - 1].price > orders[i].price) {\n        break;\n      }\n\n      if (side == Side.SELL && orders[i - 1].price < orders[i].price) {\n        break;\n      }\n\n      Order memory order = orders[i - 1];\n      orders[i - 1] = orders[i];\n      orders[i] = order;\n      i = i.sub(1);\n    }\n    nextOrderId = nextOrderId.add(1);\n  }\n\n  function createMarketOrder(\n    bytes32 ticker,\n    uint amount,\n    Side side\n  ) tokenExist(ticker) tokenIsNotDai(ticker) external {\n    if (side == Side.SELL) {\n      require(traderBalances[msg.sender][ticker] >= amount, 'token balance too low');\n    }\n    Order[] storage orders = orderBook[ticker][uint(side == Side.BUY ? Side.SELL : Side.BUY)];\n    uint i;\n    uint remaining = amount;\n\n    while (i < orders.length && remaining > 0) {\n      uint available = orders[i].amount.sub(orders[i].filled);\n      uint matched = (remaining > available) ? available : remaining;\n      remaining = remaining.sub(matched);\n      orders[i].filled = orders[i].filled.add(matched);\n      emit NewTrade(\n        nextTradeId,\n        orders[i].id,\n        ticker,\n        orders[i].trader,\n        msg.sender,\n        matched,\n        orders[i].price,\n        block.timestamp\n      );\n\n      if (side == Side.SELL) {\n        traderBalances[msg.sender][ticker] = traderBalances[msg.sender][ticker].sub(matched);\n        traderBalances[msg.sender][DAI] = traderBalances[msg.sender][DAI].add(matched.mul(orders[i].price));\n        traderBalances[orders[i].trader][ticker] = traderBalances[orders[i].trader][ticker].add(matched);\n        traderBalances[orders[i].trader][DAI] = traderBalances[orders[i].trader][DAI].sub(matched.mul(orders[i].price));\n      }\n\n      if (side == Side.BUY) {\n        require(traderBalances[msg.sender][DAI] >= matched.mul(orders[i].price), 'DAI balance too low');\n        traderBalances[msg.sender][ticker] = traderBalances[msg.sender][ticker].add(matched);\n        traderBalances[msg.sender][DAI] = traderBalances[msg.sender][DAI].sub(matched.mul(orders[i].price));\n        traderBalances[orders[i].trader][ticker] = traderBalances[orders[i].trader][ticker].sub(matched);\n        traderBalances[orders[i].trader][DAI] = traderBalances[orders[i].trader][DAI].add(matched.mul(orders[i].price));\n      }\n      nextTradeId++;\n      i++;\n    }\n\n    i = 0;\n    while (i < orders.length && orders[i].filled == orders[i].amount) {\n      for(uint j = i; j < orders.length - 1; j++ ) {\n        orders[j] = orders[j + 1];\n      }\n      orders.pop();\n      i++;\n    }\n  }\n\n  function getOrders(bytes32 ticker, Side side) external view returns(Order[] memory) {\n    return orderBook[ticker][uint(side)];\n  }\n\n  function getTokens() external view returns(Token[] memory) {\n    Token[] memory _tokens = new Token[](tokenList.length);\n    for (uint i = 0; i < tokenList.length; i++) {\n      _tokens[i] = Token(\n        tokens[tokenList[i]].ticker,\n        tokens[tokenList[i]].tokenAddress\n      );\n    }\n    return _tokens;\n  }\n\n  modifier onlyAdmin() {\n    require(msg.sender == admin, 'only admin');\n    _;\n  }\n\n  modifier tokenExist(bytes32 ticker) {\n    require(tokens[ticker].tokenAddress != address(0), 'this token does not exist');\n    _;\n  }\n\n  modifier tokenIsNotDai(bytes32 ticker) {\n    require(ticker != DAI, 'cannot trade DAI');\n    _;\n  }\n}\n",
  "sourcePath": "/Users/dominicwong/Code/dex/contracts/Dex.sol",
  "compiler": {
    "name": "solc",
    "version": "0.8.4+commit.c7e474f2.Emscripten.clang"
  },
  "schemaVersion": "3.3.4",
  "updatedAt": "2021-05-28T03:49:53.557Z",
  "networkType": "ethereum",
  "devdoc": {
    "kind": "dev",
    "methods": {},
    "version": 1
  },
  "userdoc": {
    "kind": "user",
    "methods": {},
    "version": 1
  }
}