{
  "contractName": "Dex",
  "abi": [
    {
      "inputs": [],
      "stateMutability": "nonpayable",
      "type": "constructor"
    },
    {
      "anonymous": false,
      "inputs": [
        {
          "indexed": false,
          "internalType": "uint256",
          "name": "tradeId",
          "type": "uint256"
        },
        {
          "indexed": false,
          "internalType": "uint256",
          "name": "orderId",
          "type": "uint256"
        },
        {
          "indexed": true,
          "internalType": "bytes32",
          "name": "ticker",
          "type": "bytes32"
        },
        {
          "indexed": true,
          "internalType": "address",
          "name": "trader1",
          "type": "address"
        },
        {
          "indexed": true,
          "internalType": "address",
          "name": "trader2",
          "type": "address"
        },
        {
          "indexed": false,
          "internalType": "uint256",
          "name": "amount",
          "type": "uint256"
        },
        {
          "indexed": false,
          "internalType": "uint256",
          "name": "price",
          "type": "uint256"
        },
        {
          "indexed": false,
          "internalType": "uint256",
          "name": "date",
          "type": "uint256"
        }
      ],
      "name": "NewTrade",
      "type": "event"
    },
    {
      "inputs": [],
      "name": "admin",
      "outputs": [
        {
          "internalType": "address",
          "name": "",
          "type": "address"
        }
      ],
      "stateMutability": "view",
      "type": "function"
    },
    {
      "inputs": [],
      "name": "nextOrderId",
      "outputs": [
        {
          "internalType": "uint256",
          "name": "",
          "type": "uint256"
        }
      ],
      "stateMutability": "view",
      "type": "function"
    },
    {
      "inputs": [],
      "name": "nextTradeId",
      "outputs": [
        {
          "internalType": "uint256",
          "name": "",
          "type": "uint256"
        }
      ],
      "stateMutability": "view",
      "type": "function"
    },
    {
      "inputs": [
        {
          "internalType": "bytes32",
          "name": "",
          "type": "bytes32"
        },
        {
          "internalType": "uint256",
          "name": "",
          "type": "uint256"
        },
        {
          "internalType": "uint256",
          "name": "",
          "type": "uint256"
        }
      ],
      "name": "orderBook",
      "outputs": [
        {
          "internalType": "uint256",
          "name": "id",
          "type": "uint256"
        },
        {
          "internalType": "address",
          "name": "trader",
          "type": "address"
        },
        {
          "internalType": "enum Dex.Side",
          "name": "side",
          "type": "uint8"
        },
        {
          "internalType": "bytes32",
          "name": "ticker",
          "type": "bytes32"
        },
        {
          "internalType": "uint256",
          "name": "amount",
          "type": "uint256"
        },
        {
          "internalType": "uint256",
          "name": "filled",
          "type": "uint256"
        },
        {
          "internalType": "uint256",
          "name": "price",
          "type": "uint256"
        },
        {
          "internalType": "uint256",
          "name": "date",
          "type": "uint256"
        }
      ],
      "stateMutability": "view",
      "type": "function"
    },
    {
      "inputs": [
        {
          "internalType": "uint256",
          "name": "",
          "type": "uint256"
        }
      ],
      "name": "tokenList",
      "outputs": [
        {
          "internalType": "bytes32",
          "name": "",
          "type": "bytes32"
        }
      ],
      "stateMutability": "view",
      "type": "function"
    },
    {
      "inputs": [
        {
          "internalType": "bytes32",
          "name": "",
          "type": "bytes32"
        }
      ],
      "name": "tokens",
      "outputs": [
        {
          "internalType": "bytes32",
          "name": "ticker",
          "type": "bytes32"
        },
        {
          "internalType": "address",
          "name": "tokenAddress",
          "type": "address"
        }
      ],
      "stateMutability": "view",
      "type": "function"
    },
    {
      "inputs": [
        {
          "internalType": "address",
          "name": "",
          "type": "address"
        },
        {
          "internalType": "bytes32",
          "name": "",
          "type": "bytes32"
        }
      ],
      "name": "traderBalances",
      "outputs": [
        {
          "internalType": "uint256",
          "name": "",
          "type": "uint256"
        }
      ],
      "stateMutability": "view",
      "type": "function"
    },
    {
      "inputs": [
        {
          "internalType": "bytes32",
          "name": "ticker",
          "type": "bytes32"
        },
        {
          "internalType": "address",
          "name": "tokenAddress",
          "type": "address"
        }
      ],
      "name": "addToken",
      "outputs": [],
      "stateMutability": "nonpayable",
      "type": "function"
    },
    {
      "inputs": [
        {
          "internalType": "uint256",
          "name": "amount",
          "type": "uint256"
        },
        {
          "internalType": "bytes32",
          "name": "ticker",
          "type": "bytes32"
        }
      ],
      "name": "deposit",
      "outputs": [],
      "stateMutability": "nonpayable",
      "type": "function"
    },
    {
      "inputs": [
        {
          "internalType": "uint256",
          "name": "amount",
          "type": "uint256"
        },
        {
          "internalType": "bytes32",
          "name": "ticker",
          "type": "bytes32"
        }
      ],
      "name": "withdraw",
      "outputs": [],
      "stateMutability": "nonpayable",
      "type": "function"
    },
    {
      "inputs": [
        {
          "internalType": "bytes32",
          "name": "ticker",
          "type": "bytes32"
        },
        {
          "internalType": "uint256",
          "name": "amount",
          "type": "uint256"
        },
        {
          "internalType": "uint256",
          "name": "price",
          "type": "uint256"
        },
        {
          "internalType": "enum Dex.Side",
          "name": "side",
          "type": "uint8"
        }
      ],
      "name": "createLimitOrder",
      "outputs": [],
      "stateMutability": "nonpayable",
      "type": "function"
    },
    {
      "inputs": [
        {
          "internalType": "bytes32",
          "name": "ticker",
          "type": "bytes32"
        },
        {
          "internalType": "uint256",
          "name": "amount",
          "type": "uint256"
        },
        {
          "internalType": "enum Dex.Side",
          "name": "side",
          "type": "uint8"
        }
      ],
      "name": "createMarketOrder",
      "outputs": [],
      "stateMutability": "nonpayable",
      "type": "function"
    },
    {
      "inputs": [
        {
          "internalType": "bytes32",
          "name": "ticker",
          "type": "bytes32"
        },
        {
          "internalType": "enum Dex.Side",
          "name": "side",
          "type": "uint8"
        }
      ],
      "name": "getOrders",
      "outputs": [
        {
          "components": [
            {
              "internalType": "uint256",
              "name": "id",
              "type": "uint256"
            },
            {
              "internalType": "address",
              "name": "trader",
              "type": "address"
            },
            {
              "internalType": "enum Dex.Side",
              "name": "side",
              "type": "uint8"
            },
            {
              "internalType": "bytes32",
              "name": "ticker",
              "type": "bytes32"
            },
            {
              "internalType": "uint256",
              "name": "amount",
              "type": "uint256"
            },
            {
              "internalType": "uint256",
              "name": "filled",
              "type": "uint256"
            },
            {
              "internalType": "uint256",
              "name": "price",
              "type": "uint256"
            },
            {
              "internalType": "uint256",
              "name": "date",
              "type": "uint256"
            }
          ],
          "internalType": "struct Dex.Order[]",
          "name": "",
          "type": "tuple[]"
        }
      ],
      "stateMutability": "view",
      "type": "function"
    },
    {
      "inputs": [],
      "name": "getTokens",
      "outputs": [
        {
          "components": [
            {
              "internalType": "bytes32",
              "name": "ticker",
              "type": "bytes32"
            },
            {
              "internalType": "address",
              "name": "tokenAddress",
              "type": "address"
            }
          ],
          "internalType": "struct Dex.Token[]",
          "name": "",
          "type": "tuple[]"
        }
      ],
      "stateMutability": "view",
      "type": "function"
    }
  ],
  "bytecode": "0x608060405234801561001057600080fd5b5033600460006101000a81548173ffffffffffffffffffffffffffffffffffffffff021916908373ffffffffffffffffffffffffffffffffffffffff160217905550613e56806100616000396000f3fe608060405234801561001057600080fd5b50600436106100ea5760003560e01c80639776aacf1161008c578063aa6ca80811610066578063aa6ca80814610277578063c9630cb014610295578063d9c0c950146102b1578063f851a440146102cd576100ea565b80639776aacf1461020f5780639ead72221461022b578063a8d2021a1461025b576100ea565b806372ce957e116100c857806372ce957e146101745780637f2c6246146101a4578063813ad083146101c0578063904194a3146101de576100ea565b80630bb431b6146100ef5780632a58b3301461012657806346e9658b14610144575b600080fd5b61010960048036038101906101049190613357565b6102eb565b60405161011d989796959493929190613954565b60405180910390f35b61012e61038a565b60405161013b9190613939565b60405180910390f35b61015e600480360381019061015991906132cc565b610390565b60405161016b91906137f1565b60405180910390f35b61018e60048036038101906101899190613202565b610566565b60405161019b9190613939565b60405180910390f35b6101be60048036038101906101b99190613308565b61058b565b005b6101c8611c9a565b6040516101d59190613939565b60405180910390f35b6101f860048036038101906101f39190613267565b611ca0565b604051610206929190613850565b60405180910390f35b61022960048036038101906102249190613290565b611ce4565b005b61024560048036038101906102409190613409565b611e32565b6040516102529190613835565b60405180910390f35b61027560048036038101906102709190613432565b611e56565b005b61027f61210e565b60405161028c9190613813565b60405180910390f35b6102af60048036038101906102aa9190613432565b6122ff565b005b6102cb60048036038101906102c691906133a6565b612526565b005b6102d56130fe565b6040516102e29190613776565b60405180910390f35b6003602052826000526040600020602052816000526040600020818154811061031357600080fd5b906000526020600020906007020160009250925050508060000154908060010160009054906101000a900473ffffffffffffffffffffffffffffffffffffffff16908060010160149054906101000a900460ff16908060020154908060030154908060040154908060050154908060060154905088565b60055481565b60606003600084815260200190815260200160002060008360018111156103e0577f4e487b7100000000000000000000000000000000000000000000000000000000600052602160045260246000fd5b8152602001908152602001600020805480602002602001604051908101604052809291908181526020016000905b8282101561055a578382906000526020600020906007020160405180610100016040529081600082015481526020016001820160009054906101000a900473ffffffffffffffffffffffffffffffffffffffff1673ffffffffffffffffffffffffffffffffffffffff1673ffffffffffffffffffffffffffffffffffffffff1681526020016001820160149054906101000a900460ff1660018111156104dd577f4e487b7100000000000000000000000000000000000000000000000000000000600052602160045260246000fd5b6001811115610515577f4e487b7100000000000000000000000000000000000000000000000000000000600052602160045260246000fd5b8152602001600282015481526020016003820154815260200160048201548152602001600582015481526020016006820154815250508152602001906001019061040e565b50505050905092915050565b6002602052816000526040600020602052806000526040600020600091509150505481565b82600073ffffffffffffffffffffffffffffffffffffffff1660008083815260200190815260200160002060010160009054906101000a900473ffffffffffffffffffffffffffffffffffffffff1673ffffffffffffffffffffffffffffffffffffffff161415610631576040517f08c379a000000000000000000000000000000000000000000000000000000000815260040161062890613919565b60405180910390fd5b837f4441490000000000000000000000000000000000000000000000000000000000811415610695576040517f08c379a000000000000000000000000000000000000000000000000000000000815260040161068c906138d9565b60405180910390fd5b6001808111156106ce577f4e487b7100000000000000000000000000000000000000000000000000000000600052602160045260246000fd5b836001811115610707577f4e487b7100000000000000000000000000000000000000000000000000000000600052602160045260246000fd5b14156107a15783600260003373ffffffffffffffffffffffffffffffffffffffff1673ffffffffffffffffffffffffffffffffffffffff16815260200190815260200160002060008781526020019081526020016000205410156107a0576040517f08c379a0000000000000000000000000000000000000000000000000000000008152600401610797906138f9565b60405180910390fd5b5b60006003600087815260200190815260200160002060008060018111156107f1577f4e487b7100000000000000000000000000000000000000000000000000000000600052602160045260246000fd5b86600181111561082a577f4e487b7100000000000000000000000000000000000000000000000000000000600052602160045260246000fd5b14610836576000610839565b60015b6001811115610871577f4e487b7100000000000000000000000000000000000000000000000000000000600052602160045260246000fd5b815260200190815260200160002090506000805b8280549050821080156108985750600081115b156119355760008383815481106108d8577f4e487b7100000000000000000000000000000000000000000000000000000000600052603260045260246000fd5b906000526020600020906007020160040154848481548110610923577f4e487b7100000000000000000000000000000000000000000000000000000000600052603260045260246000fd5b90600052602060002090600702016003015461093f9190613b58565b905060008183116109505782610952565b815b9050610967818461312490919063ffffffff16565b92506109c6818686815481106109a6577f4e487b7100000000000000000000000000000000000000000000000000000000600052603260045260246000fd5b90600052602060002090600702016004015461313a90919063ffffffff16565b8585815481106109ff577f4e487b7100000000000000000000000000000000000000000000000000000000600052603260045260246000fd5b9060005260206000209060070201600401819055503373ffffffffffffffffffffffffffffffffffffffff16858581548110610a64577f4e487b7100000000000000000000000000000000000000000000000000000000600052603260045260246000fd5b906000526020600020906007020160010160009054906101000a900473ffffffffffffffffffffffffffffffffffffffff1673ffffffffffffffffffffffffffffffffffffffff168b7fdb0c486e680ba8026643e6a85f8d157b5e7bcd4b32b54d564542570a9eb20416600654898981548110610b0a577f4e487b7100000000000000000000000000000000000000000000000000000000600052603260045260246000fd5b906000526020600020906007020160000154868b8b81548110610b56577f4e487b7100000000000000000000000000000000000000000000000000000000600052603260045260246000fd5b90600052602060002090600702016005015442604051610b7a9594939291906139d2565b60405180910390a4600180811115610bbb577f4e487b7100000000000000000000000000000000000000000000000000000000600052602160045260246000fd5b886001811115610bf4577f4e487b7100000000000000000000000000000000000000000000000000000000600052602160045260246000fd5b14156111b757610c5d81600260003373ffffffffffffffffffffffffffffffffffffffff1673ffffffffffffffffffffffffffffffffffffffff16815260200190815260200160002060008d81526020019081526020016000205461312490919063ffffffff16565b600260003373ffffffffffffffffffffffffffffffffffffffff1673ffffffffffffffffffffffffffffffffffffffff16815260200190815260200160002060008c815260200190815260200160002081905550610d90610d11868681548110610cf0577f4e487b7100000000000000000000000000000000000000000000000000000000600052603260045260246000fd5b9060005260206000209060070201600501548361315090919063ffffffff16565b600260003373ffffffffffffffffffffffffffffffffffffffff1673ffffffffffffffffffffffffffffffffffffffff16815260200190815260200160002060007f444149000000000000000000000000000000000000000000000000000000000081526020019081526020016000205461313a90919063ffffffff16565b600260003373ffffffffffffffffffffffffffffffffffffffff1673ffffffffffffffffffffffffffffffffffffffff16815260200190815260200160002060007f4441490000000000000000000000000000000000000000000000000000000000815260200190815260200160002081905550610ed18160026000888881548110610e45577f4e487b7100000000000000000000000000000000000000000000000000000000600052603260045260246000fd5b906000526020600020906007020160010160009054906101000a900473ffffffffffffffffffffffffffffffffffffffff1673ffffffffffffffffffffffffffffffffffffffff1673ffffffffffffffffffffffffffffffffffffffff16815260200190815260200160002060008d81526020019081526020016000205461313a90919063ffffffff16565b60026000878781548110610f0e577f4e487b7100000000000000000000000000000000000000000000000000000000600052603260045260246000fd5b906000526020600020906007020160010160009054906101000a900473ffffffffffffffffffffffffffffffffffffffff1673ffffffffffffffffffffffffffffffffffffffff1673ffffffffffffffffffffffffffffffffffffffff16815260200190815260200160002060008c8152602001908152602001600020819055506110d8610fef868681548110610fce577f4e487b7100000000000000000000000000000000000000000000000000000000600052603260045260246000fd5b9060005260206000209060070201600501548361315090919063ffffffff16565b6002600088888154811061102c577f4e487b7100000000000000000000000000000000000000000000000000000000600052603260045260246000fd5b906000526020600020906007020160010160009054906101000a900473ffffffffffffffffffffffffffffffffffffffff1673ffffffffffffffffffffffffffffffffffffffff1673ffffffffffffffffffffffffffffffffffffffff16815260200190815260200160002060007f444149000000000000000000000000000000000000000000000000000000000081526020019081526020016000205461312490919063ffffffff16565b60026000878781548110611115577f4e487b7100000000000000000000000000000000000000000000000000000000600052603260045260246000fd5b906000526020600020906007020160010160009054906101000a900473ffffffffffffffffffffffffffffffffffffffff1673ffffffffffffffffffffffffffffffffffffffff1673ffffffffffffffffffffffffffffffffffffffff16815260200190815260200160002060007f44414900000000000000000000000000000000000000000000000000000000008152602001908152602001600020819055505b600060018111156111f1577f4e487b7100000000000000000000000000000000000000000000000000000000600052602160045260246000fd5b88600181111561122a577f4e487b7100000000000000000000000000000000000000000000000000000000600052602160045260246000fd5b14156118fc5761128d85858154811061126c577f4e487b7100000000000000000000000000000000000000000000000000000000600052603260045260246000fd5b9060005260206000209060070201600501548261315090919063ffffffff16565b600260003373ffffffffffffffffffffffffffffffffffffffff1673ffffffffffffffffffffffffffffffffffffffff16815260200190815260200160002060007f4441490000000000000000000000000000000000000000000000000000000000815260200190815260200160002054101561133f576040517f08c379a0000000000000000000000000000000000000000000000000000000008152600401611336906138b9565b60405180910390fd5b6113a281600260003373ffffffffffffffffffffffffffffffffffffffff1673ffffffffffffffffffffffffffffffffffffffff16815260200190815260200160002060008d81526020019081526020016000205461313a90919063ffffffff16565b600260003373ffffffffffffffffffffffffffffffffffffffff1673ffffffffffffffffffffffffffffffffffffffff16815260200190815260200160002060008c8152602001908152602001600020819055506114d5611456868681548110611435577f4e487b7100000000000000000000000000000000000000000000000000000000600052603260045260246000fd5b9060005260206000209060070201600501548361315090919063ffffffff16565b600260003373ffffffffffffffffffffffffffffffffffffffff1673ffffffffffffffffffffffffffffffffffffffff16815260200190815260200160002060007f444149000000000000000000000000000000000000000000000000000000000081526020019081526020016000205461312490919063ffffffff16565b600260003373ffffffffffffffffffffffffffffffffffffffff1673ffffffffffffffffffffffffffffffffffffffff16815260200190815260200160002060007f4441490000000000000000000000000000000000000000000000000000000000815260200190815260200160002081905550611616816002600088888154811061158a577f4e487b7100000000000000000000000000000000000000000000000000000000600052603260045260246000fd5b906000526020600020906007020160010160009054906101000a900473ffffffffffffffffffffffffffffffffffffffff1673ffffffffffffffffffffffffffffffffffffffff1673ffffffffffffffffffffffffffffffffffffffff16815260200190815260200160002060008d81526020019081526020016000205461312490919063ffffffff16565b60026000878781548110611653577f4e487b7100000000000000000000000000000000000000000000000000000000600052603260045260246000fd5b906000526020600020906007020160010160009054906101000a900473ffffffffffffffffffffffffffffffffffffffff1673ffffffffffffffffffffffffffffffffffffffff1673ffffffffffffffffffffffffffffffffffffffff16815260200190815260200160002060008c81526020019081526020016000208190555061181d611734868681548110611713577f4e487b7100000000000000000000000000000000000000000000000000000000600052603260045260246000fd5b9060005260206000209060070201600501548361315090919063ffffffff16565b60026000888881548110611771577f4e487b7100000000000000000000000000000000000000000000000000000000600052603260045260246000fd5b906000526020600020906007020160010160009054906101000a900473ffffffffffffffffffffffffffffffffffffffff1673ffffffffffffffffffffffffffffffffffffffff1673ffffffffffffffffffffffffffffffffffffffff16815260200190815260200160002060007f444149000000000000000000000000000000000000000000000000000000000081526020019081526020016000205461313a90919063ffffffff16565b6002600087878154811061185a577f4e487b7100000000000000000000000000000000000000000000000000000000600052603260045260246000fd5b906000526020600020906007020160010160009054906101000a900473ffffffffffffffffffffffffffffffffffffffff1673ffffffffffffffffffffffffffffffffffffffff1673ffffffffffffffffffffffffffffffffffffffff16815260200190815260200160002060007f44414900000000000000000000000000000000000000000000000000000000008152602001908152602001600020819055505b611912600160065461313a90919063ffffffff16565b60068190555061192c60018561313a90919063ffffffff16565b93505050610885565b600091505b8280549050821080156119e05750828281548110611981577f4e487b7100000000000000000000000000000000000000000000000000000000600052603260045260246000fd5b9060005260206000209060070201600301548383815481106119cc577f4e487b7100000000000000000000000000000000000000000000000000000000600052603260045260246000fd5b906000526020600020906007020160040154145b15611c905760008290505b600184805490506119fc9190613b58565b811015611bb95783600182611a119190613aa8565b81548110611a48577f4e487b7100000000000000000000000000000000000000000000000000000000600052603260045260246000fd5b9060005260206000209060070201848281548110611a8f577f4e487b7100000000000000000000000000000000000000000000000000000000600052603260045260246000fd5b9060005260206000209060070201600082015481600001556001820160009054906101000a900473ffffffffffffffffffffffffffffffffffffffff168160010160006101000a81548173ffffffffffffffffffffffffffffffffffffffff021916908373ffffffffffffffffffffffffffffffffffffffff1602179055506001820160149054906101000a900460ff168160010160146101000a81548160ff02191690836001811115611b6c577f4e487b7100000000000000000000000000000000000000000000000000000000600052602160045260246000fd5b021790555060028201548160020155600382015481600301556004820154816004015560058201548160050155600682015481600601559050508080611bb190613c03565b9150506119eb565b5082805480611bf1577f4e487b7100000000000000000000000000000000000000000000000000000000600052603160045260246000fd5b60019003818190600052602060002090600702016000808201600090556001820160006101000a81549073ffffffffffffffffffffffffffffffffffffffff02191690556001820160146101000a81549060ff02191690556002820160009055600382016000905560048201600090556005820160009055600682016000905550509055611c8960018361313a90919063ffffffff16565b915061193a565b5050505050505050565b60065481565b60006020528060005260406000206000915090508060000154908060010160009054906101000a900473ffffffffffffffffffffffffffffffffffffffff16905082565b600460009054906101000a900473ffffffffffffffffffffffffffffffffffffffff1673ffffffffffffffffffffffffffffffffffffffff163373ffffffffffffffffffffffffffffffffffffffff1614611d74576040517f08c379a0000000000000000000000000000000000000000000000000000000008152600401611d6b90613899565b60405180910390fd5b60405180604001604052808381526020018273ffffffffffffffffffffffffffffffffffffffff168152506000808481526020019081526020016000206000820151816000015560208201518160010160006101000a81548173ffffffffffffffffffffffffffffffffffffffff021916908373ffffffffffffffffffffffffffffffffffffffff16021790555090505060018290806001815401808255809150506001900390600052602060002001600090919091909150555050565b60018181548110611e4257600080fd5b906000526020600020016000915090505481565b80600073ffffffffffffffffffffffffffffffffffffffff1660008083815260200190815260200160002060010160009054906101000a900473ffffffffffffffffffffffffffffffffffffffff1673ffffffffffffffffffffffffffffffffffffffff161415611efc576040517f08c379a0000000000000000000000000000000000000000000000000000000008152600401611ef390613919565b60405180910390fd5b82600260003373ffffffffffffffffffffffffffffffffffffffff1673ffffffffffffffffffffffffffffffffffffffff1681526020019081526020016000206000848152602001908152602001600020541015611f8f576040517f08c379a0000000000000000000000000000000000000000000000000000000008152600401611f8690613879565b60405180910390fd5b611ff283600260003373ffffffffffffffffffffffffffffffffffffffff1673ffffffffffffffffffffffffffffffffffffffff16815260200190815260200160002060008581526020019081526020016000205461312490919063ffffffff16565b600260003373ffffffffffffffffffffffffffffffffffffffff1673ffffffffffffffffffffffffffffffffffffffff16815260200190815260200160002060008481526020019081526020016000208190555060008083815260200190815260200160002060010160009054906101000a900473ffffffffffffffffffffffffffffffffffffffff1673ffffffffffffffffffffffffffffffffffffffff1663a9059cbb33856040518363ffffffff1660e01b81526004016120b69291906137c8565b602060405180830381600087803b1580156120d057600080fd5b505af11580156120e4573d6000803e3d6000fd5b505050506040513d601f19601f82011682018060405250810190612108919061323e565b50505050565b6060600060018054905067ffffffffffffffff811115612157577f4e487b7100000000000000000000000000000000000000000000000000000000600052604160045260246000fd5b60405190808252806020026020018201604052801561219057816020015b61217d613166565b8152602001906001900390816121755790505b50905060005b6001805490508110156122f7576040518060400160405280600080600185815481106121eb577f4e487b7100000000000000000000000000000000000000000000000000000000600052603260045260246000fd5b906000526020600020015481526020019081526020016000206000015481526020016000806001858154811061224a577f4e487b7100000000000000000000000000000000000000000000000000000000600052603260045260246000fd5b9060005260206000200154815260200190815260200160002060010160009054906101000a900473ffffffffffffffffffffffffffffffffffffffff1673ffffffffffffffffffffffffffffffffffffffff168152508282815181106122d9577f4e487b7100000000000000000000000000000000000000000000000000000000600052603260045260246000fd5b602002602001018190525080806122ef90613c03565b915050612196565b508091505090565b80600073ffffffffffffffffffffffffffffffffffffffff1660008083815260200190815260200160002060010160009054906101000a900473ffffffffffffffffffffffffffffffffffffffff1673ffffffffffffffffffffffffffffffffffffffff1614156123a5576040517f08c379a000000000000000000000000000000000000000000000000000000000815260040161239c90613919565b60405180910390fd5b60008083815260200190815260200160002060010160009054906101000a900473ffffffffffffffffffffffffffffffffffffffff1673ffffffffffffffffffffffffffffffffffffffff166323b872dd3330866040518463ffffffff1660e01b815260040161241793929190613791565b602060405180830381600087803b15801561243157600080fd5b505af1158015612445573d6000803e3d6000fd5b505050506040513d601f19601f82011682018060405250810190612469919061323e565b506124cd83600260003373ffffffffffffffffffffffffffffffffffffffff1673ffffffffffffffffffffffffffffffffffffffff16815260200190815260200160002060008581526020019081526020016000205461313a90919063ffffffff16565b600260003373ffffffffffffffffffffffffffffffffffffffff1673ffffffffffffffffffffffffffffffffffffffff168152602001908152602001600020600084815260200190815260200160002081905550505050565b83600073ffffffffffffffffffffffffffffffffffffffff1660008083815260200190815260200160002060010160009054906101000a900473ffffffffffffffffffffffffffffffffffffffff1673ffffffffffffffffffffffffffffffffffffffff1614156125cc576040517f08c379a00000000000000000000000000000000000000000000000000000000081526004016125c390613919565b60405180910390fd5b847f4441490000000000000000000000000000000000000000000000000000000000811415612630576040517f08c379a0000000000000000000000000000000000000000000000000000000008152600401612627906138d9565b60405180910390fd5b600180811115612669577f4e487b7100000000000000000000000000000000000000000000000000000000600052602160045260246000fd5b8360018111156126a2577f4e487b7100000000000000000000000000000000000000000000000000000000600052602160045260246000fd5b14156127405784600260003373ffffffffffffffffffffffffffffffffffffffff1673ffffffffffffffffffffffffffffffffffffffff168152602001908152602001600020600088815260200190815260200160002054101561273b576040517f08c379a0000000000000000000000000000000000000000000000000000000008152600401612732906138f9565b60405180910390fd5b612806565b612753848661315090919063ffffffff16565b600260003373ffffffffffffffffffffffffffffffffffffffff1673ffffffffffffffffffffffffffffffffffffffff16815260200190815260200160002060007f44414900000000000000000000000000000000000000000000000000000000008152602001908152602001600020541015612805576040517f08c379a00000000000000000000000000000000000000000000000000000000081526004016127fc906138b9565b60405180910390fd5b5b6000600360008881526020019081526020016000206000856001811115612856577f4e487b7100000000000000000000000000000000000000000000000000000000600052602160045260246000fd5b815260200190815260200160002090508060405180610100016040528060055481526020013373ffffffffffffffffffffffffffffffffffffffff1681526020018660018111156128d0577f4e487b7100000000000000000000000000000000000000000000000000000000600052602160045260246000fd5b8152602001898152602001888152602001600081526020018781526020014281525090806001815401808255809150506001900390600052602060002090600702016000909190919091506000820151816000015560208201518160010160006101000a81548173ffffffffffffffffffffffffffffffffffffffff021916908373ffffffffffffffffffffffffffffffffffffffff16021790555060408201518160010160146101000a81548160ff021916908360018111156129bd577f4e487b7100000000000000000000000000000000000000000000000000000000600052602160045260246000fd5b0217905550606082015181600201556080820151816003015560a0820151816004015560c0820151816005015560e082015181600601555050600080828054905011612a0a576000612a1c565b60018280549050612a1b9190613b58565b5b90505b60008111156130d85760006001811115612a62577f4e487b7100000000000000000000000000000000000000000000000000000000600052602160045260246000fd5b856001811115612a9b577f4e487b7100000000000000000000000000000000000000000000000000000000600052602160045260246000fd5b148015612b475750818181548110612adc577f4e487b7100000000000000000000000000000000000000000000000000000000600052603260045260246000fd5b90600052602060002090600702016005015482600183612afc9190613b58565b81548110612b33577f4e487b7100000000000000000000000000000000000000000000000000000000600052603260045260246000fd5b906000526020600020906007020160050154115b15612b51576130d8565b600180811115612b8a577f4e487b7100000000000000000000000000000000000000000000000000000000600052602160045260246000fd5b856001811115612bc3577f4e487b7100000000000000000000000000000000000000000000000000000000600052602160045260246000fd5b148015612c6f5750818181548110612c04577f4e487b7100000000000000000000000000000000000000000000000000000000600052603260045260246000fd5b90600052602060002090600702016005015482600183612c249190613b58565b81548110612c5b577f4e487b7100000000000000000000000000000000000000000000000000000000600052603260045260246000fd5b906000526020600020906007020160050154105b15612c79576130d8565b600082600183612c899190613b58565b81548110612cc0577f4e487b7100000000000000000000000000000000000000000000000000000000600052603260045260246000fd5b906000526020600020906007020160405180610100016040529081600082015481526020016001820160009054906101000a900473ffffffffffffffffffffffffffffffffffffffff1673ffffffffffffffffffffffffffffffffffffffff1673ffffffffffffffffffffffffffffffffffffffff1681526020016001820160149054906101000a900460ff166001811115612d85577f4e487b7100000000000000000000000000000000000000000000000000000000600052602160045260246000fd5b6001811115612dbd577f4e487b7100000000000000000000000000000000000000000000000000000000600052602160045260246000fd5b8152602001600282015481526020016003820154815260200160048201548152602001600582015481526020016006820154815250509050828281548110612e2e577f4e487b7100000000000000000000000000000000000000000000000000000000600052603260045260246000fd5b906000526020600020906007020183600184612e4a9190613b58565b81548110612e81577f4e487b7100000000000000000000000000000000000000000000000000000000600052603260045260246000fd5b9060005260206000209060070201600082015481600001556001820160009054906101000a900473ffffffffffffffffffffffffffffffffffffffff168160010160006101000a81548173ffffffffffffffffffffffffffffffffffffffff021916908373ffffffffffffffffffffffffffffffffffffffff1602179055506001820160149054906101000a900460ff168160010160146101000a81548160ff02191690836001811115612f5e577f4e487b7100000000000000000000000000000000000000000000000000000000600052602160045260246000fd5b0217905550600282015481600201556003820154816003015560048201548160040155600582015481600501556006820154816006015590505080838381548110612fd2577f4e487b7100000000000000000000000000000000000000000000000000000000600052603260045260246000fd5b90600052602060002090600702016000820151816000015560208201518160010160006101000a81548173ffffffffffffffffffffffffffffffffffffffff021916908373ffffffffffffffffffffffffffffffffffffffff16021790555060408201518160010160146101000a81548160ff02191690836001811115613082577f4e487b7100000000000000000000000000000000000000000000000000000000600052602160045260246000fd5b0217905550606082015181600201556080820151816003015560a0820151816004015560c0820151816005015560e082015181600601559050506130d060018361312490919063ffffffff16565b915050612a1f565b6130ee600160055461313a90919063ffffffff16565b6005819055505050505050505050565b600460009054906101000a900473ffffffffffffffffffffffffffffffffffffffff1681565b600081836131329190613b58565b905092915050565b600081836131489190613aa8565b905092915050565b6000818361315e9190613afe565b905092915050565b604051806040016040528060008019168152602001600073ffffffffffffffffffffffffffffffffffffffff1681525090565b6000813590506131a881613db4565b92915050565b6000815190506131bd81613dcb565b92915050565b6000813590506131d281613de2565b92915050565b6000813590506131e781613df9565b92915050565b6000813590506131fc81613e09565b92915050565b6000806040838503121561321557600080fd5b600061322385828601613199565b9250506020613234858286016131c3565b9150509250929050565b60006020828403121561325057600080fd5b600061325e848285016131ae565b91505092915050565b60006020828403121561327957600080fd5b6000613287848285016131c3565b91505092915050565b600080604083850312156132a357600080fd5b60006132b1858286016131c3565b92505060206132c285828601613199565b9150509250929050565b600080604083850312156132df57600080fd5b60006132ed858286016131c3565b92505060206132fe858286016131d8565b9150509250929050565b60008060006060848603121561331d57600080fd5b600061332b868287016131c3565b935050602061333c868287016131ed565b925050604061334d868287016131d8565b9150509250925092565b60008060006060848603121561336c57600080fd5b600061337a868287016131c3565b935050602061338b868287016131ed565b925050604061339c868287016131ed565b9150509250925092565b600080600080608085870312156133bc57600080fd5b60006133ca878288016131c3565b94505060206133db878288016131ed565b93505060406133ec878288016131ed565b92505060606133fd878288016131d8565b91505092959194509250565b60006020828403121561341b57600080fd5b6000613429848285016131ed565b91505092915050565b6000806040838503121561344557600080fd5b6000613453858286016131ed565b9250506020613464858286016131c3565b9150509250929050565b600061347a8383613687565b6101008301905092915050565b60006134938383613729565b60408301905092915050565b6134a881613b8c565b82525050565b6134b781613b8c565b82525050565b60006134c882613a45565b6134d28185613a75565b93506134dd83613a25565b8060005b8381101561350e5781516134f5888261346e565b975061350083613a5b565b9250506001810190506134e1565b5085935050505092915050565b600061352682613a50565b6135308185613a86565b935061353b83613a35565b8060005b8381101561356c5781516135538882613487565b975061355e83613a68565b92505060018101905061353f565b5085935050505092915050565b61358281613baa565b82525050565b61359181613baa565b82525050565b6135a081613bf1565b82525050565b6135af81613bf1565b82525050565b60006135c2600f83613a97565b91506135cd82613caa565b602082019050919050565b60006135e5600a83613a97565b91506135f082613cd3565b602082019050919050565b6000613608601383613a97565b915061361382613cfc565b602082019050919050565b600061362b601083613a97565b915061363682613d25565b602082019050919050565b600061364e601583613a97565b915061365982613d4e565b602082019050919050565b6000613671601983613a97565b915061367c82613d77565b602082019050919050565b6101008201600082015161369e6000850182613758565b5060208201516136b1602085018261349f565b5060408201516136c46040850182613597565b5060608201516136d76060850182613579565b5060808201516136ea6080850182613758565b5060a08201516136fd60a0850182613758565b5060c082015161371060c0850182613758565b5060e082015161372360e0850182613758565b50505050565b60408201600082015161373f6000850182613579565b506020820151613752602085018261349f565b50505050565b61376181613be7565b82525050565b61377081613be7565b82525050565b600060208201905061378b60008301846134ae565b92915050565b60006060820190506137a660008301866134ae565b6137b360208301856134ae565b6137c06040830184613767565b949350505050565b60006040820190506137dd60008301856134ae565b6137ea6020830184613767565b9392505050565b6000602082019050818103600083015261380b81846134bd565b905092915050565b6000602082019050818103600083015261382d818461351b565b905092915050565b600060208201905061384a6000830184613588565b92915050565b60006040820190506138656000830185613588565b61387260208301846134ae565b9392505050565b60006020820190508181036000830152613892816135b5565b9050919050565b600060208201905081810360008301526138b2816135d8565b9050919050565b600060208201905081810360008301526138d2816135fb565b9050919050565b600060208201905081810360008301526138f28161361e565b9050919050565b6000602082019050818103600083015261391281613641565b9050919050565b6000602082019050818103600083015261393281613664565b9050919050565b600060208201905061394e6000830184613767565b92915050565b60006101008201905061396a600083018b613767565b613977602083018a6134ae565b61398460408301896135a6565b6139916060830188613588565b61399e6080830187613767565b6139ab60a0830186613767565b6139b860c0830185613767565b6139c560e0830184613767565b9998505050505050505050565b600060a0820190506139e76000830188613767565b6139f46020830187613767565b613a016040830186613767565b613a0e6060830185613767565b613a1b6080830184613767565b9695505050505050565b6000819050602082019050919050565b6000819050602082019050919050565b600081519050919050565b600081519050919050565b6000602082019050919050565b6000602082019050919050565b600082825260208201905092915050565b600082825260208201905092915050565b600082825260208201905092915050565b6000613ab382613be7565b9150613abe83613be7565b9250827fffffffffffffffffffffffffffffffffffffffffffffffffffffffffffffffff03821115613af357613af2613c4c565b5b828201905092915050565b6000613b0982613be7565b9150613b1483613be7565b9250817fffffffffffffffffffffffffffffffffffffffffffffffffffffffffffffffff0483118215151615613b4d57613b4c613c4c565b5b828202905092915050565b6000613b6382613be7565b9150613b6e83613be7565b925082821015613b8157613b80613c4c565b5b828203905092915050565b6000613b9782613bc7565b9050919050565b60008115159050919050565b6000819050919050565b6000819050613bc282613da0565b919050565b600073ffffffffffffffffffffffffffffffffffffffff82169050919050565b6000819050919050565b6000613bfc82613bb4565b9050919050565b6000613c0e82613be7565b91507fffffffffffffffffffffffffffffffffffffffffffffffffffffffffffffffff821415613c4157613c40613c4c565b5b600182019050919050565b7f4e487b7100000000000000000000000000000000000000000000000000000000600052601160045260246000fd5b7f4e487b7100000000000000000000000000000000000000000000000000000000600052602160045260246000fd5b7f62616c616e636520746f6f206c6f770000000000000000000000000000000000600082015250565b7f6f6e6c792061646d696e00000000000000000000000000000000000000000000600082015250565b7f4441492062616c616e636520746f6f206c6f7700000000000000000000000000600082015250565b7f63616e6e6f742074726164652044414900000000000000000000000000000000600082015250565b7f746f6b656e2062616c616e636520746f6f206c6f770000000000000000000000600082015250565b7f7468697320746f6b656e20646f6573206e6f7420657869737400000000000000600082015250565b60028110613db157613db0613c7b565b5b50565b613dbd81613b8c565b8114613dc857600080fd5b50565b613dd481613b9e565b8114613ddf57600080fd5b50565b613deb81613baa565b8114613df657600080fd5b50565b60028110613e0657600080fd5b50565b613e1281613be7565b8114613e1d57600080fd5b5056fea2646970667358221220b26bd319d876d04526135798756255e86e525aeb6591a9b045b937cadb2ea11d64736f6c63430008040033",
  "immutableReferences": {},
  "source": "// SPDX-License-Identifier: UNLICENSED\npragma solidity 0.8.4;\npragma experimental ABIEncoderV2;\n\nimport \"@openzeppelin/contracts/token/ERC20/IERC20.sol\";\nimport \"@openzeppelin/contracts/utils/math/SafeMath.sol\";\n\ncontract Dex {\n\n  using SafeMath for uint;\n\n  enum Side {\n    BUY,\n    SELL\n  }\n\n  struct Token {\n    bytes32 ticker;\n    address tokenAddress;\n  }\n\n  struct Order {\n    uint id;\n    address trader;\n    Side side;\n    bytes32 ticker;\n    uint amount;\n    uint filled;\n    uint price;\n    uint date;\n  }\n\n  mapping(bytes32 => Token) public tokens;\n  bytes32[] public tokenList;\n  mapping(address => mapping(bytes32 => uint)) public traderBalances;\n  mapping(bytes32 => mapping(uint => Order[])) public orderBook;\n  address public admin;\n  uint public nextOrderId;\n  uint public nextTradeId;\n  bytes32 constant DAI = bytes32('DAI');\n\n  event NewTrade(\n    uint tradeId,\n    uint orderId,\n    bytes32 indexed ticker,\n    address indexed trader1,\n    address indexed trader2,\n    uint amount,\n    uint price,\n    uint date\n  );\n\n  constructor() {\n    admin = msg.sender;\n  }\n\n  function addToken(bytes32 ticker, address tokenAddress) onlyAdmin() external {\n    tokens[ticker] = Token(ticker, tokenAddress);\n    tokenList.push(ticker);\n  }\n\n  function deposit(uint amount, bytes32 ticker) tokenExist(ticker) external {\n    IERC20(tokens[ticker].tokenAddress).transferFrom(msg.sender, address(this), amount);\n    traderBalances[msg.sender][ticker] = traderBalances[msg.sender][ticker].add(amount);\n  }\n\n  function withdraw(uint amount, bytes32 ticker) tokenExist(ticker) external {\n    require(traderBalances[msg.sender][ticker] >= amount, 'balance too low');\n    traderBalances[msg.sender][ticker] = traderBalances[msg.sender][ticker].sub(amount);\n    IERC20(tokens[ticker].tokenAddress).transfer(msg.sender, amount);\n  }\n\n  function createLimitOrder(\n    bytes32 ticker,\n    uint amount,\n    uint price,\n    Side side\n  ) tokenExist(ticker) tokenIsNotDai(ticker) external {\n    if (side == Side.SELL) {\n      require(traderBalances[msg.sender][ticker] >= amount, 'token balance too low');\n    } else {\n      require(traderBalances[msg.sender][DAI] >= amount.mul(price), 'DAI balance too low');\n    }\n\n    Order[] storage orders = orderBook[ticker][uint(side)];\n    orders.push(Order(\n      nextOrderId,\n      msg.sender,\n      side,\n      ticker,\n      amount,\n      0,\n      price,\n      block.timestamp\n    ));\n\n    uint i = orders.length > 0 ? orders.length - 1 : 0;\n    while (i > 0) {\n      if (side == Side.BUY && orders[i - 1].price > orders[i].price) {\n        break;\n      }\n\n      if (side == Side.SELL && orders[i - 1].price < orders[i].price) {\n        break;\n      }\n\n      Order memory order = orders[i - 1];\n      orders[i - 1] = orders[i];\n      orders[i] = order;\n      i = i.sub(1);\n    }\n    nextOrderId = nextOrderId.add(1);\n  }\n\n  function createMarketOrder(\n    bytes32 ticker,\n    uint amount,\n    Side side\n  ) tokenExist(ticker) tokenIsNotDai(ticker) external {\n    if (side == Side.SELL) {\n      require(traderBalances[msg.sender][ticker] >= amount, 'token balance too low');\n    }\n\n    Order[] storage orders = orderBook[ticker][uint(side == Side.BUY ? Side.SELL : Side.BUY)];\n    uint i;\n    uint remaining;\n\n    while (i < orders.length && remaining > 0) {\n      uint available = orders[i].amount - orders[i].filled;\n      uint matched = (remaining > available) ? available : remaining;\n      remaining = remaining.sub(matched);\n      orders[i].filled = orders[i].filled.add(matched);\n      emit NewTrade(\n        nextTradeId,\n        orders[i].id,\n        ticker,\n        orders[i].trader,\n        msg.sender,\n        matched,\n        orders[i].price,\n        block.timestamp\n      );\n\n      if (side == Side.SELL) {\n        traderBalances[msg.sender][ticker] = traderBalances[msg.sender][ticker].sub(matched);\n        traderBalances[msg.sender][DAI] = traderBalances[msg.sender][DAI].add(matched.mul(orders[i].price));\n        traderBalances[orders[i].trader][ticker] = traderBalances[orders[i].trader][ticker].add(matched);\n        traderBalances[orders[i].trader][DAI] = traderBalances[orders[i].trader][DAI].sub(matched.mul(orders[i].price));\n      }\n\n      if (side == Side.BUY) {\n        require(traderBalances[msg.sender][DAI] >= matched.mul(orders[i].price), 'DAI balance too low');\n        traderBalances[msg.sender][ticker] = traderBalances[msg.sender][ticker].add(matched);\n        traderBalances[msg.sender][DAI] = traderBalances[msg.sender][DAI].sub(matched.mul(orders[i].price));\n        traderBalances[orders[i].trader][ticker] = traderBalances[orders[i].trader][ticker].sub(matched);\n        traderBalances[orders[i].trader][DAI] = traderBalances[orders[i].trader][DAI].add(matched.mul(orders[i].price));\n      }\n\n      nextTradeId = nextTradeId.add(1);\n      i = i.add(1);\n    }\n\n    i = 0;\n    while (i < orders.length && orders[i].filled == orders[i].amount) {\n      for (uint j = i; j < orders.length - 1; j++) {\n        orders[j] = orders[j + 1];\n      }\n      orders.pop();\n      i = i.add(1);\n    }\n  }\n\n  function getOrders(bytes32 ticker, Side side) external view returns(Order[] memory) {\n    return orderBook[ticker][uint(side)];\n  }\n\n  function getTokens() external view returns(Token[] memory) {\n    Token[] memory _tokens = new Token[](tokenList.length);\n    for (uint i = 0; i < tokenList.length; i++) {\n      _tokens[i] = Token(\n        tokens[tokenList[i]].ticker,\n        tokens[tokenList[i]].tokenAddress\n      );\n    }\n    return _tokens;\n  }\n\n  modifier onlyAdmin() {\n    require(msg.sender == admin, 'only admin');\n    _;\n  }\n\n  modifier tokenExist(bytes32 ticker) {\n    require(tokens[ticker].tokenAddress != address(0), 'this token does not exist');\n    _;\n  }\n\n  modifier tokenIsNotDai(bytes32 ticker) {\n    require(ticker != DAI, 'cannot trade DAI');\n    _;\n  }\n}\n",
  "sourcePath": "/Users/dominicwong/Code/dex/contracts/Dex.sol",
  "compiler": {
    "name": "solc",
    "version": "0.8.4+commit.c7e474f2.Emscripten.clang"
  },
  "schemaVersion": "3.3.4",
  "updatedAt": "2021-05-27T13:32:43.305Z",
  "devdoc": {
    "kind": "dev",
    "methods": {},
    "version": 1
  },
  "userdoc": {
    "kind": "user",
    "methods": {},
    "version": 1
  }
}